:100000000C9483010C94AB010C94AB010C94AB01E8
:100010000C94AB010C94AB010C94AB010C94AB01B0
:100020000C94AB010C94AB010C94F6060C94A70550
:100030000C94AB010C94AB010C94AB010C94AB0190
:100040000C94AB010C94AB010C94AB010C94AB0180
:100050000C94AB010C94AB010C94AB010C94DB0140
:100060000C94AB010C94AB010C94AB010C94AB0160
:100070000C94AB010C94AB010C94AB010C94AB0150
:100080000C94AB010C94AB010C94AB010C94AB0140
:100090000C94AB010C94AB010C94AB010C94AB0130
:1000A0000C94AB010C94AB010C94AB01ED02F20289
:1000B000F70201034B034B034B030B0315031F0311
:1000C000290336034B033E0368036B035E0362039D
:1000D0008C038C038C036F03730377037D0381030D
:1000E0008C0387030000000200080E0000030401D7
:1000F000000B0000000000000000000000000000F5
:100100000000040802011040804010204080408020
:10011000080204018040201002011080102040409D
:10012000040404040403040502020202040302029C
:100130000202060606060606040402020204000085
:100140000000250028002B002E00310000000000D8
:10015000240027002A002D00300000C18081C11238
:10016000010002020000404123378000010102002B
:10017000011201000200000040412337800001010C
:100180000200011803410072006400750069006EEE
:10019000006F0020004C004C00430022034100721D
:1001A000006400750069006E006F0020004D00695A
:1001B00000630072006F002000200020000403098B
:1001C0000400000000000000002A2B2800000000AE
:1001D000000000000000000000000000000000001F
:1001E000002C9EB4A0A1A2A434A6A7A5AE362D379C
:1001F00038271E1F20212223242526B333B62EB7ED
:10020000B89F8485868788898A8B8C8D8E8F909104
:1002100092939495969798999A9B9C9D2F3130A391
:10022000AD350405060708090A0B0C0D0E0F101159
:1002300012131415161718191A1B1C1DAFB1B0B5DF
:10024000000904020001030000000921010100016E
:100250002265000705840340000105010902A10190
:100260000901A100850105091901290315002501CE
:10027000950375018102950175058103050109301A
:10028000093109381581257F750895038106C0C09D
:1002900005010906A1018502050719E029E71500F6
:1002A0002501750195088102950175088103950660
:1002B0007508150025650507190029658100C00826
:1002C0000B0002020201000904000001020200000A
:1002D000052400100105240101010424020605245F
:1002E0000600010705810310004009040100020A0D
:1002F00000000007050202400000070583024000DD
:1003000000008108860911241FBECFEFDAE0DEBFAE
:10031000CDBF11E0A0E0B1E0EEE8F3E102C005904E
:100320000D92AA32B107D9F721E0AAE2B1E001C0EB
:100330001D92AB39B207E1F711E0C3E8D1E004C088
:100340002197FE010E94BF09C138D107C9F70E9459
:10035000F8030C94C5090C94000060E875E289E488
:1003600091E00E94850961E08BE00E948D0361E0CD
:100370008DE00E948D0361E087E00E948D0361E0C3
:1003800088E00E948D0361E087E00E94C90361E07C
:1003900088E00C94C90360E070E08BE00E94C60224
:1003A00061E070E080E090E00E944A0264E670E064
:1003B0008DE00C94C6021F920F920FB60F9211247B
:1003C0002F933F938F939F93AF93BF9380912B0174
:1003D00090912C01A0912D01B0912E0130912A0114
:1003E00023E0230F2D3720F40196A11DB11D05C078
:1003F00026E8230F0296A11DB11D20932A018093A8
:100400002B0190932C01A0932D01B0932E0180918C
:100410002F0190913001A0913101B09132010196EC
:10042000A11DB11D80932F0190933001A093310144
:10043000B0933201BF91AF919F918F913F912F91D6
:100440000F900FBE0F901F9018953FB7F8948091B2
:100450002F0190913001A0913101B091320126B568
:10046000A89B05C02F3F19F00196A11DB11D3FBFEC
:10047000BA2FA92F982F8827820F911DA11DB11D7A
:10048000BC01CD0142E0660F771F881F991F4A9576
:10049000D1F70895CF92DF92EF92FF92CF93DF933F
:1004A0006B017C010E942502EB01C114D104E1041F
:1004B000F10479F00E9425026C1B7D0B683E7340AD
:1004C000A0F381E0C81AD108E108F108C851DC4F57
:1004D000ECCFDF91CF91FF90EF90DF90CF90089518
:1004E000789484B5826084BD84B5816084BD85B50F
:1004F000826085BD85B5816085BDEEE6F0E08081D6
:1005000081608083E1E8F0E01082808182608083F6
:10051000808181608083E0E8F0E080818160808379
:10052000E1E9F0E080818260808380818160808366
:10053000E0E9F0E0808181608083E1ECF0E080819F
:1005400084608083808182608083808181608083F9
:10055000E3ECF0E0808181608083E0ECF0E080817A
:1005600082608083E2ECF0E0808181608083EAE752
:10057000F0E08081846080838081826080838081DC
:100580008160808380818068808308951F93CF93EA
:10059000DF93182FEB0161E00E948D03209711F487
:1005A00060E004C0CF3FD10539F461E0812FDF91D5
:1005B000CF911F910C94C903E12FF0E0EC51FF4F54
:1005C000E4918E2F90E0FC013197EE30F10508F0B8
:1005D00062C0EA5AFF4F0C94BF0984B5806884BD9D
:1005E000C7BD5EC084B5806284BDC8BD59C080915E
:1005F0008000806880938000D0938900C093880039
:100600004FC080918000806280938000D0938B00E7
:10061000C0938A0045C080919000806880939000CC
:10062000D0939900C09398003BC080919000806265
:1006300080939000D0939B00C0939A0031C080912A
:100640009000886080939000D0939D00C0939C00A0
:1006500027C08091C00080688093C0008091C00056
:100660008F7B8093C000C093CF001AC08091C000E0
:1006700080628093C000C093D00012C08091C200FD
:1006800088608093C2008091C2008B7F8093C200FB
:10069000C093D20005C0C038D1050CF086CF80CF02
:1006A000DF91CF911F91089590E0FC013197EE30DA
:1006B000F10590F5EC59FF4F0C94BF098091800033
:1006C0008F7703C0809180008F7D80938000089594
:1006D00084B58F7702C084B58F7D84BD08958091E5
:1006E00090008F7707C0809190008F7D03C080912C
:1006F0009000877F8093900008958091C0008F774D
:1007000003C08091C0008F7D8093C00008958091C8
:10071000C200877F8093C2000895CF93DF9390E05B
:10072000FC01EE5FFE4F2491FC01E05EFE4F8491E0
:10073000882361F190E0880F991FFC01E45BFE4F74
:10074000C591D491FC01E25CFE4FA591B491611179
:1007500009C09FB7F8948881209582238883EC9103
:100760002E230BC0623061F49FB7F8948881322F3A
:10077000309583238883EC912E2B2C939FBF06C04A
:100780008FB7F894E8812E2B28838FBFDF91CF910C
:1007900008951F93CF93DF93282F30E0F901EC5198
:1007A000FF4F8491F901EE5FFE4FD491F901E05EB5
:1007B000FE4FC491CC23C1F0162F81110E94540327
:1007C000EC2FF0E0EE0FFF1FE25CFE4FA591B4911D
:1007D0009FB7F894111104C08C91D095D82302C012
:1007E000EC91DE2BDC939FBFDF91CF911F91089599
:1007F0000E94700283E391E00E94D6060E94AD0140
:10080000C0E0D0E00E94CB012097E1F30E940000FD
:10081000F9CF615030F02091F100FC012083019666
:10082000F8CF289A84E680933A0108952FB7FC0107
:100830002083F89467706093E9000895CF93DF9365
:100840001F92CDB7DEB7682FCE0101960E94160425
:100850008091F20099819FBF0F90DF91CF91089511
:10086000EF92FF920F931F93CF93DF931F92CDB719
:10087000DEB790913901992311F057FF03C08FEF34
:100880009FEF29C08A017B01682FCE0101960E944B
:1008900016042091F20030E0021713070CF49801BF
:1008A000822FF70194E6815038F0289A90933A010C
:1008B0004091F1004193F7CF2115310521F080914E
:1008C000F200882321F089818FBFC90104C08BE623
:1008D0008093E800F8CF0F90DF91CF911F910F9197
:1008E000FF90EF900895CF93DF931F92CDB7DEB7BF
:1008F00041E050E0BE016F5F7F4F0E9430040197DE
:1009000019F4898190E002C08FEF9FEF0F90DF9183
:10091000CF910895CF93DF931F92CDB7DEB7682FA5
:10092000CE0101960E9416049091E800892F8072F2
:1009300095FF04C09091F20080E4891B99819FBFCC
:100940000F90DF91CF9108954F925F926F927F92B7
:100950008F929F92AF92BF92CF92DF92EF92FF92CF
:100960000F931F93CF93DF931F92CDB7DEB7A82EBF
:100970006B01B42E052F80913901882369F0E42E94
:10098000F52E8AEF782E8A2D8072582E9AE3692EE2
:100990008A2D8074482E12C08FEF9FEF4FC08A2D92
:1009A0000E948A04182F81110DC07A947720A1F338
:1009B00061E070E080E090E00E944A02E114F104FE
:1009C00071F732C090E0E816F9060CF41E2D812E66
:1009D000912CE818F9086A2DCE0101960E941604A0
:1009E000552029F01150A0F01092F100FBCFF60134
:1009F000A7FE0AC0115050F084918093F100319607
:100A0000F9CF81918093F1001150D8F7C80CD91C0F
:100A10008091E80085FF0FC0E114F10411F441104A
:100A20000AC089818FBFCACF5D9A84E680933B015B
:100A30008B2D902F03C06092E800F3CF0F90DF91D1
:100A4000CF911F910F91FF90EF90DF90CF90BF90CB
:100A5000AF909F908F907F906F905F904F90089590
:100A60001092E900109238011092370190933601EC
:100A70008093350108950F931F93CF93DF93DB018C
:100A8000A40FB51FFB016EEFEA17FB0791F187FF7B
:100A900002C0249101C020810091370110913801DA
:100AA000C0913501D09136010C171D07B4F4909117
:100AB000E8009570E1F39091E80092FD1CC020934E
:100AC000F10020913701309138012F5F3F4F2F7394
:100AD0003327232B11F46093E800209137013091E4
:100AE00038012F5F3F4F3093380120933701319603
:100AF000CBCFCA0102C08FEF9FEFDF91CF911F9143
:100B00000F910895CF93DF93EB012091E80022FF2E
:100B1000FCCF6C2F0E9409048BEF8093E800CE017C
:100B2000DF91CF910895CF93DF931F92CDB7DEB7BA
:100B30001982CE0101960E942109CE0101960E94E0
:100B40007307898190E00F90DF91CF9108951F92F4
:100B50000F920FB60F921124CF92DF92EF92FF9275
:100B60001F932F933F934F935F936F937F938F9335
:100B70009F93AF93BF93EF93FF93CF93DF93CDB743
:100B8000DEB76197DEBFCDBF1092E9008091E8002B
:100B900083FFE4C068E0CE010A960E94090482EF58
:100BA0008093E8009A8597FF05C08091E80080FF58
:100BB000FCCF03C08EEF8093E800892F807609F088
:100BC000A3C08B85811105C01092F1001092F10035
:100BD000BEC0282F2D7F213009F4B9C0853049F4DB
:100BE0008091E80080FFFCCF8C8580688093E300D3
:100BF000AEC0863009F05EC01D85E888F9881230E5
:100C000069F580E090E00E9430050E94930599E02C
:100C10009E012F5F3F4F6901F901292F11922A95FB
:100C2000E9F799831A8391E09E8390E898879AEF79
:100C300099872091370130913801275F3F4F3C83DE
:100C40002B838D83C7010E94300549E050E0B60137
:100C500080E00E943B050E94930579C0C7010E9475
:100C60003005123241F482E290E00E947E07892B27
:100C700009F06DC070C0113069F4888999890897AE
:100C800011F41093340180913401811152C061E755
:100C900071E057C0133009F05EC08C85882309F4D9
:100CA0004BC0823009F44BC0813009F054C063E876
:100CB00071E047C0873009F44EC0883021F481E0EC
:100CC0008093F10044C0893009F041C0937009F06D
:100CD00042C0EBE5F1E081E031E096E38093E9008A
:100CE0003093EB0024912093EC009093ED008F5F04
:100CF0003196853099F78EE78093EA001092EA00EA
:100D00008C858093390123C0888999890E94300598
:100D10008E85811105C0CE010A960E942C0906C05D
:100D20008230C9F4CE010A960E94A607882399F062
:100D30000EC06FE571E005C06DEB71E002C06BE9BC
:100D400071E0FB01449150E080E80E943B058EEF8A
:100D50008093E80003C081E28093EB0061960FB6B8
:100D6000F894DEBF0FBECDBFDF91CF91FF91EF9121
:100D7000BF91AF919F918F917F916F915F914F91B3
:100D80003F912F911F91FF90EF90DF90CF900F90A8
:100D90000FBE0F901F9018958093E9008091F2008C
:100DA000882319F08AE38093E800089510923901AE
:100DB00081E08093D70080EA8093D80082E189BDEA
:100DC00009B400FEFDCF61E070E080E090E00E9499
:100DD0004A0280E98093D8008CE08093E200109270
:100DE000E000559A209A5D98289808951F920F92D6
:100DF0000FB60F9211242F933F934F935F936F93EE
:100E00007F938F939F93AF93BF93EF93FF938091C3
:100E1000E1001092E10083FF0FC01092E90091E021
:100E20009093EB001092EC0092E39093ED001092FF
:100E3000390198E09093F00082FF26C083E00E9481
:100E4000CC0682E00E941E04882321F089E491E010
:100E50000E94D30880913B01882339F080913B01A7
:100E6000815080933B01882369F080913A01882367
:100E700059F080913A01815080933A01811104C068
:100E8000289802C05D98F1CFFF91EF91BF91AF918B
:100E90009F918F917F916F915F914F913F912F9192
:100EA0000F900FBE0F901F901895EF92FF921F9317
:100EB000CF93DF93EC01162FE881F9810480F5814F
:100EC000E02D09957C01E881F9810680F781E02D0C
:100ED000612FCE010995C7019927DF91CF911F910D
:100EE000FF90EF900895FC0190819F5F908349E10E
:100EF00050E061E472E080E80C943B0545E650E088
:100F00006AE572E080E80C943B05EF92FF920F9344
:100F10001F93CF93DF931F92CDB7DEB789838B01E9
:100F20007A0141E050E0BE016F5F7F4F84E00E9494
:100F3000A404A701B80184E40E94A4040F90DF91E7
:100F4000CF911F910F91FF90EF900895FC01918137
:100F50008081813A31F481E0913091F0933089F4CD
:100F600011C0813271F49B3021F4828180930101A0
:100F700005C09A3031F482818093000181E00895A8
:100F8000089580E0089548E050E082E00C948507E1
:100F9000DC01683810F068582DC0E62FF0E067FFDC
:100FA00011C0E058F10981E090E001C0880FEA9596
:100FB000EAF714969C911497892B14968C931497A6
:100FC00060E018C0EF53FE4F6491611109C081E0E9
:100FD00090E013969C938E93129780E090E0089592
:100FE00067FF08C014968C911497826014968C93B6
:100FF00014976F7716968C911697681751F117967C
:101000008C911797681729F118968C911897681783
:1010100001F119968C9119976817D9F01A968C914D
:101020001A976817B1F01B968C911B97681789F077
:10103000FD01369680E090E02191211105C0FD016F
:10104000E80FF91F668305C0019686309105A1F768
:10105000BECFCD01BD016C5F7F4F0E94C30781E011
:1010600090E00895DC01683810F0685825C0E62F3C
:10107000F0E067FF12C0E058F10981E090E001C0A4
:10108000880FEA95EAF7809514969C911497892326
:1010900014968C93149760E00FC0EF53FE4F649149
:1010A0006623F9F067FF08C014968C9114978D7F22
:1010B00014968C9314976F77FD0186E0662321F0D8
:1010C0009681691301C01682815031968111F6CF45
:1010D000CD01BD016C5F7F4F0E94C30781E090E0AE
:1010E000089580E090E00895FC0116821782108632
:1010F0001186128613861482BC016C5F7F4F0C949C
:10110000C30710924801ECE3F1E0138212828EE0F3
:1011100091E0918380830895809197019091980147
:101120002091990130919A01821B930B8F7399271B
:1011300008952091970130919801809199019091A3
:101140009A012817390749F0E0919901F0919A0125
:10115000E95AFE4F808190E008958FEF9FEF089548
:1011600020919701309198018091990190919A0175
:1011700028173907A9F0E0919901F0919A01E95AED
:10118000FE4F80812091990130919A012F5F3F4F4E
:101190002F73332730939A012093990190E008959B
:1011A0008FEF9FEF0895CF93DF93C0919701D09178
:1011B00098012196CF73DD278091990190919A0132
:1011C000C817D90799F082E00E9473048F3F2FEF70
:1011D000920761F0E0919701F0919801E95AFE4F72
:1011E0008083D0939801C0939701DFCFDF91CF9197
:1011F000089583E00C94CC060F931F93CF93DF9355
:101200001F92CDB7DEB78C016983809109018823D5
:1012100059F041E050E0BE016F5F7F4F83E00E94D4
:10122000A404181619063CF081E090E0F8019383BD
:10123000828380E090E00F90DF91CF911F910F911A
:101240000895FC0190819E5F908342E450E06FEB33
:1012500072E080E80C943B05FC0181819081913A19
:1012600059F4813209F04DC047E050E062E071E08E
:1012700080E00E943B0547C0913209F042C08032B5
:1012800039F467E070E082E091E00E9482053BC0A3
:10129000823209F036C08281809309018091020177
:1012A00090910301A0910401B0910501803B94400D
:1012B000A105B10541F58091090180FD11C087E7C5
:1012C00097E790930108809300089BE088E10FB6B0
:1012D000F894A895809360000FBE9093600013C0AF
:1012E0000FB6F894A89580916000886180936000A3
:1012F000109260000FBEA89510920108109200088D
:1013000002C080E0089581E008950895E9E4F1E0E5
:101310001382128288EE93E0A0E0B0E0848395838C
:10132000A683B7838CE191E0918380830895CF9267
:10133000DF92EF92FF920F931F93CF93DF936C0195
:10134000EB017B01E40EF51E00E010E0CE15DF0599
:1013500061F06991D601ED91FC910190F081E02D51
:10136000C6010995080F191FF1CFC801DF91CF9170
:101370001F910F91FF90EF90DF90CF900895EE0FA7
:0E138000FF1F0590F491E02D0994F894FFCF23
:10138E00010100E100000000000000000000550710
:10139E009709C8073208740800000000FC08970976
:0A13AE008C08B0089908F908D3086C
:00000001FF
