:100000000C9489010C94B1010C94B1010C94B101D0
:100010000C94B1010C94B1010C94B1010C94B10198
:100020000C94B1010C94B1010C94DA090C948B0876
:100030000C94B1010C94B1010C94B1010C94B10178
:100040000C94B1010C94B1010C94B1010C94B10168
:100050000C94B1010C94B1010C94B1010C945F03A8
:100060000C94B1010C94B1010C94B1010C94B10148
:100070000C94B1010C94B1010C94B1010C94B10138
:100080000C94B1010C94B1010C94B1010C94B10128
:100090000C94B1010C94B1010C94B1010C94B10118
:1000A0000C94B1010C94B1010C94B101AE04B304F1
:1000B000B804C2040C050C050C05CC04D604E004FD
:1000C000EA04F7040C05FF0429052C051F05230588
:1000D0004D054D054D053005340538053E054205F5
:1000E0004D054805070605040100080A0B0C0D091B
:1000F0000000000200080E0000030401000B0000D5
:1001000000000000000000000000000000000408E3
:10011000020110408040102040804080080204010D
:10012000804020100201108010204040040404048C
:10013000040304050202020204030202020206068C
:100140000606060604040202020400000000250060
:1001500028002B002E0031000000000024002700A2
:100160002A002D00300000C18081C112010002026E
:10017000000040412337800001010200011201000C
:1001800002000000404123378000010102000118F5
:1001900003410072006400750069006E006F00206A
:1001A000004C004C004300220341007200640075C3
:1001B0000069006E006F0020004D0069006300724E
:1001C000006F00200020002000040309040000004C
:1001D00000000000002A2B280000000000000000A2
:1001E000000000000000000000000000002C9EB491
:1001F000A0A1A2A434A6A7A5AE362D3738271E1F6E
:1002000020212223242526B333B62EB7B89F848518
:10021000868788898A8B8C8D8E8F90919293949506
:10022000969798999A9B9C9D2F3130A3AD350405E4
:10023000060708090A0B0C0D0E0F101112131415E6
:10024000161718191A1B1C1DAFB1B0B5000904020E
:1002500000010300000009210101000122650007DF
:1002600005840340000105010902A1010901A10063
:10027000850105091901290315002501950375015B
:10028000810295017505810305010930093109389D
:100290001581257F750895038106C0C005010906F3
:1002A000A1018502050719E029E71500250175015F
:1002B000950881029501750881039506750815005A
:1002C00025650507190029658100C0080B00020299
:1002D00002010009040000010202000005240010D0
:1002E000010524010101042402060524060001077A
:1002F00005810310004009040100020A0000000704
:1003000005020240000007058302400000001B0CAC
:10031000200D11241FBECFEFDAE0DEBFCDBF11E00C
:10032000A0E0B1E0EAEEFAE102C005900D92A2343D
:10033000B107D9F721E0A2E4B1E001C01D92AF3BC3
:10034000B207E1F711E0C9E8D1E004C02197FE014E
:100350000E94530DC738D107C9F70E94B9050C9404
:10036000730D0C940000809142019091430197FD20
:10037000AAC09093470180934601109249011092C0
:100380004801809144019091450197FDA8C0909348
:100390004B0180934A0110924D0110924C016091E3
:1003A0004601709147018DE00E94870461E070E092
:1003B00080E090E00E94DA03609148017091490169
:1003C0008BE00E94870461E070E080E090E00E9492
:1003D000DA0360914A0170914B018AE00E94870420
:1003E00061E070E080E090E00E94DA0360914C01EF
:1003F00070914D0189E00E94870461E070E080E027
:1004000090E00E94DA0360914601709147014AE052
:1004100050E08DE691E00E94D40663E171E08DE644
:1004200091E00E94070660914801709149014AE0FD
:1004300050E08DE691E00E94D40663E171E08DE624
:1004400091E00E94070660914A0170914B014AE0D9
:1004500050E08DE691E00E94D40663E171E08DE604
:1004600091E00E94070660914C0170914D014AE0B5
:1004700050E08DE691E00E94D40663E171E08DE6E4
:1004800091E00E94240660914201709143014AE08C
:1004900050E08DE691E00E94D40663E171E08DE6C4
:1004A00091E00E94070660914401709145014AE085
:1004B00050E08DE691E00E94D40663E171E08DE6A4
:1004C00091E00C94240610924701109246019195F8
:1004D00081959109909349018093480152CF1092E0
:1004E0004B0110924A0191958195910990934D018C
:1004F00080934C0154CFEF92FF920F931F93CF93B1
:10050000DF9382E10E945604C5E0C89F8001C99F25
:10051000100D112483E10E9456047C0184E10E94A5
:100520005604CE9D9001CF9D300D1124220F331F14
:10053000AC01C49FC001C59F900D1124EC01CC0FEC
:10054000DD1F8C0F9D1F7901E01AF10AEC01C21B1F
:10055000D30B6BE071E08DE691E00E9407064AE064
:1005600050E0B8018DE691E00E94D40663E171E0AD
:100570008DE691E00E9407064AE050E0B7018DE663
:1005800091E00E94D40663E171E08DE691E00E9463
:1005900007064AE050E0BE018DE691E00E94DB06CE
:1005A00061E086E0DF91CF911F910F91FF90EF9076
:1005B0000C948A0560E875E28DE691E00E941F0DBB
:1005C00061E08DE00E944E0561E08BE00E944E05E7
:1005D00061E08AE00E944E0561E089E00E944E05DC
:1005E00061E088E00E944E0561E087E00E944E05D0
:1005F00064E670E080E090E00E94DA0361E088E069
:100600000E948A0561E087E00E948A0561E086E039
:100610000E944E050C947B021F93CF93DF938DE6CF
:1006200091E00E94260C892B09F445C08DE691E0EB
:100630000E944A0C182F823521F08C3411F083343B
:1006400061F48DE691E00E94EC0A9B0121503F4F3E
:100650002F3F314038F4EB0107C0873429F40E9462
:10066000B30124C0C0E0D0E01C34E1F01235A9F0A1
:100670001334E1F465E171E08DE691E00E94070634
:10068000CC9FB001CD9F700D700D11244AE050E059
:100690008DE691E00E94DB0609C0D0934301C09330
:1006A000420104C0D0934501C0934401DF91CF9132
:1006B0001F910C94B301DF91CF911F9108951F9268
:1006C0000F920FB60F9211242F933F938F939F9306
:1006D000AF93BF9380914F0190915001A091510130
:1006E000B091520130914E0123E0230F2D3720F4B9
:1006F0000196A11DB11D05C026E8230F0296A11D7C
:10070000B11D20934E0180934F0190935001A0930F
:100710005101B09352018091530190915401A091E5
:100720005501B09156010196A11DB11D8093530151
:1007300090935401A0935501B0935601BF91AF918E
:100740009F918F913F912F910F900FBE0F901F900F
:1007500018952FB7F89460914F01709150018091D6
:100760005101909152012FBF08953FB7F8948091A5
:10077000530190915401A0915501B091560126B5B5
:10078000A89B05C02F3F19F00196A11DB11D3FBFC9
:10079000BA2FA92F982F8827820F911DA11DB11D57
:1007A000BC01CD0142E0660F771F881F991F4A9553
:1007B000D1F70895CF92DF92EF92FF92CF93DF931C
:1007C0006B017C010E94B503EB01C114D104E1046B
:1007D000F10479F00E94B5036C1B7D0B683E7340F9
:1007E000A0F381E0C81AD108E108F108C851DC4F34
:1007F000ECCFDF91CF91FF90EF90DF90CF900895F5
:10080000789484B5826084BD84B5816084BD85B5EB
:10081000826085BD85B5816085BDEEE6F0E08081B2
:1008200081608083E1E8F0E01082808182608083D3
:10083000808181608083E0E8F0E080818160808356
:10084000E1E9F0E080818260808380818160808343
:10085000E0E9F0E0808181608083E1ECF0E080817C
:1008600084608083808182608083808181608083D6
:10087000E3ECF0E0808181608083E0ECF0E0808157
:1008800082608083E2ECF0E0808181608083EAE72F
:10089000F0E08081846080838081826080838081B9
:1008A000816080838081806880830895823108F030
:1008B0008251E82FF0E0EC51FF4FE49180917B00F2
:1008C000E3FB222720F930E095E0220F331F9A95B1
:1008D000E1F78F7D282B20937B008091000120E49D
:1008E000829FC0011124E770E82BE0937C00809187
:1008F0007A00806480937A0080917A0086FDFCCF34
:10090000809178002091790090E0922B08951F93B8
:10091000CF93DF93182FEB0161E00E944E052097E3
:1009200011F460E004C0CF3FD10539F461E0812FBC
:10093000DF91CF911F910C948A05E12FF0E0E051F7
:10094000FF4FE4918E2F90E0FC013197EE30F105DE
:1009500008F062C0EA5AFF4F0C94530D84B58068CA
:1009600084BDC7BD5EC084B5806284BDC8BD59C0AA
:1009700080918000806880938000D0938900C0932C
:1009800088004FC080918000806280938000D09367
:100990008B00C0938A0045C080919000806880934E
:1009A0009000D0939900C09398003BC08091900034
:1009B000806280939000D0939B00C0939A0031C0D6
:1009C00080919000886080939000D0939D00C093A8
:1009D0009C0027C08091C00080688093C0008091F7
:1009E000C0008F7B8093C000C093CF001AC080915D
:1009F000C00080628093C000C093D00012C080917C
:100A0000C20088608093C2008091C2008B7F809377
:100A1000C200C093D20005C0C038D1050CF086CF0B
:100A200080CFDF91CF911F91089590E0FC01319725
:100A3000EE30F10590F5EC59FF4F0C94530D809179
:100A400080008F7703C0809180008F7D809380002D
:100A5000089584B58F7702C084B58F7D84BD0895D5
:100A6000809190008F7707C0809190008F7D03C0A8
:100A700080919000877F8093900008958091C000BE
:100A80008F7703C08091C0008F7D8093C000089550
:100A90008091C200877F8093C2000895CF93DF9337
:100AA00090E0FC01E25FFE4F2491FC01E45DFE4F0B
:100AB0008491882361F190E0880F991FFC01E85A26
:100AC000FE4FC591D491FC01E65BFE4FA591B49118
:100AD000611109C09FB7F89488812095822388838B
:100AE000EC912E230BC0623061F49FB7F89488819B
:100AF000322F309583238883EC912E2B2C939FBF2C
:100B000006C08FB7F894E8812E2B28838FBFDF9122
:100B1000CF9108951F93CF93DF93282F30E0F901F1
:100B2000E051FF4F8491F901E25FFE4FD491F9014A
:100B3000E45DFE4FC491CC23C1F0162F81110E94B9
:100B40001505EC2FF0E0EE0FFF1FE65BFE4FA591C1
:100B5000B4919FB7F894111104C08C91D095D8230B
:100B600002C0EC91DE2BDC939FBFDF91CF911F91F0
:100B700008950E94000487E591E00E94BA090E944E
:100B8000DA02C0E0D0E00E940C032097E1F30E945B
:100B90000000F9CFCF92DF92EF92FF920F931F9355
:100BA000CF93DF936C01EB017B01E40EF51E00E0B7
:100BB00010E0CE15DF0561F06991D601ED91FC9151
:100BC0000190F081E02DC6010995080F191FF1CFA2
:100BD000C801DF91CF911F910F91FF90EF90DF90AF
:100BE000CF9008956115710579F0FB010190002007
:100BF000E9F73197AF01461B570BDC01ED91FC91F2
:100C00000280F381E02D099480E090E008950C9437
:100C1000F205DC01ED91FC910190F081E02D099449
:100C20000F931F93CF93DF93EC016DE00E940906B1
:100C30008C016AE0CE010E940906800F911FDF91AE
:100C4000CF911F910F9108950F931F93CF93DF932F
:100C5000EC010E94F2058C01CE010E941006800F6B
:100C6000911FDF91CF911F910F9108958F929F92C5
:100C7000AF92BF92CF92DF92EF92FF920F931F93AA
:100C8000CF93DF93CDB7DEB7A1970FB6F894DEBF51
:100C90000FBECDBF6C01142FE52FCB01022F19A27F
:100CA000223008F40AE07E0121E2E20EF11C802EDF
:100CB000912CA12CB12C612F7E2FA50194010E94B3
:100CC000310D029F1019112481E0E81AF1081A3041
:100CD00014F4105D01C0195CF7011083122FE32F8B
:100CE000CA01232B242B252B31F7B701C6010E9403
:100CF000F205A1960FB6F894DEBF0FBECDBFDF910F
:100D0000CF911F910F91FF90EF90DF90CF90BF9008
:100D1000AF909F908F900895CF92DF92EF92FF92C5
:100D20000F931F93CF93DF932115310581F4DC01DD
:100D3000ED91FC910190F081E02D642FDF91CF9136
:100D40001F910F91FF90EF90DF90CF9009942A3080
:100D5000310501F577FF1DC06A017B01EC016DE2F1
:100D60000E9409068C0144275527BA014C195D09D8
:100D70006E097F092AE0CE010E943606800F911F7E
:100D8000DF91CF911F910F91FF90EF90DF90CF9067
:100D900008952AE0DF91CF911F910F91FF90EF907E
:100DA000DF90CF900C9436069A01AB01770F660B5B
:100DB000770B0C948C060F931F93CF93DF93EC016A
:100DC0000E94D4068C01CE010E941006800F911F54
:100DD000DF91CF911F910F910895615030F02091D4
:100DE000F100FC0120830196F8CF289A84E68093D5
:100DF0005E0108952FB7FC012083F894677060931B
:100E0000E9000895CF93DF931F92CDB7DEB7682F27
:100E1000CE0101960E94FA068091F20099819FBF4F
:100E20000F90DF91CF910895EF92FF920F931F9350
:100E3000CF93DF931F92CDB7DEB790915D019923D9
:100E400011F057FF03C08FEF9FEF29C08A017B018C
:100E5000682FCE0101960E94FA062091F20030E040
:100E6000021713070CF49801822FF70194E68150C2
:100E700038F0289A90935E014091F1004193F7CFAA
:100E80002115310521F08091F200882321F089811C
:100E90008FBFC90104C08BE68093E800F8CF0F90A4
:100EA000DF91CF911F910F91FF90EF900895CF9315
:100EB000DF931F92CDB7DEB741E050E0BE016F5F18
:100EC0007F4F0E941407019719F4898190E002C0B6
:100ED0008FEF9FEF0F90DF91CF910895CF93DF9326
:100EE0001F92CDB7DEB7682FCE0101960E94FA0699
:100EF0009091E800892F807295FF04C09091F200D4
:100F000080E4891B99819FBF0F90DF91CF91089555
:100F10004F925F926F927F928F929F92AF92BF9209
:100F2000CF92DF92EF92FF920F931F93CF93DF93B5
:100F30001F92CDB7DEB7A82E6B01B42E052F80917E
:100F40005D01882369F0E42EF52E8AEF782E8A2D34
:100F50008072582E9AE3692E8A2D8074482E12C012
:100F60008FEF9FEF4FC08A2D0E946E07182F8111BF
:100F70000DC07A947720A1F361E070E080E090E00A
:100F80000E94DA03E114F10471F732C090E0E81630
:100F9000F9060CF41E2D812E912CE818F9086A2D03
:100FA000CE0101960E94FA06552029F01150A0F0BA
:100FB0001092F100FBCFF601A7FE0AC0115050F0CD
:100FC00084918093F1003196F9CF81918093F10063
:100FD0001150D8F7C80CD91C8091E80085FF0FC0CC
:100FE000E114F10411F441100AC089818FBFCACF06
:100FF0005D9A84E680935F018B2D902F03C06092F1
:10100000E800F3CF0F90DF91CF911F910F91FF90E8
:10101000EF90DF90CF90BF90AF909F908F907F9098
:101020006F905F904F9008951092E90010925C01CC
:1010300010925B0190935A018093590108950F9388
:101040001F93CF93DF93DB01A40FB51FFB016EEF5E
:10105000EA17FB0791F187FF02C0249101C02081AC
:1010600000915B0110915C01C0915901D0915A012E
:101070000C171D07B4F49091E8009570E1F390917E
:10108000E80092FD1CC02093F10020915B0130919B
:101090005C012F5F3F4F2F733327232B11F4609395
:1010A000E80020915B0130915C012F5F3F4F30934E
:1010B0005C0120935B013196CBCFCA0102C08FEF58
:1010C0009FEFDF91CF911F910F910895CF93DF9301
:1010D000EB012091E80022FFFCCF6C2F0E94ED066F
:1010E0008BEF8093E800CE01DF91CF910895CF93ED
:1010F000DF931F92CDB7DEB71982CE0101960E9411
:10110000BB0CCE0101960E940D0B898190E00F90DF
:10111000DF91CF9108951F920F920FB60F92112475
:10112000CF92DF92EF92FF921F932F933F934F93B3
:101130005F936F937F938F939F93AF93BF93EF933F
:10114000FF93CF93DF93CDB7DEB76197DEBFCDBFFF
:101150001092E9008091E80083FFE4C068E0CE01CE
:101160000A960E94ED0682EF8093E8009A8597FF29
:1011700005C08091E80080FFFCCF03C08EEF809314
:10118000E800892F807609F0A3C08B85811105C006
:101190001092F1001092F100BEC0282F2D7F213057
:1011A00009F4B9C0853049F48091E80080FFFCCF94
:1011B0008C8580688093E300AEC0863009F05EC005
:1011C0001D85E888F988123069F580E090E00E947A
:1011D00014080E94770899E09E012F5F3F4F690134
:1011E000F901292F11922A95E9F799831A8391E041
:1011F0009E8390E898879AEF998720915B013091C0
:101200005C01275F3F4F3C832B838D83C7010E9486
:10121000140849E050E0B60180E00E941F080E94D7
:10122000770879C0C7010E941408123241F482E2A3
:1012300090E00E94180B892B09F06DC070C011302E
:1012400069F488899989089711F41093580180915D
:101250005801811152C06DE771E057C0133009F099
:101260005EC08C85882309F44BC0823009F44BC0E2
:10127000813009F054C06FE871E047C0873009F44D
:101280004EC0883021F481E08093F10044C0893061
:1012900009F041C0937009F042C0E7E6F1E081E057
:1012A00031E096E38093E9003093EB0024912093A2
:1012B000EC009093ED008F5F3196853099F78EE7C3
:1012C0008093EA001092EA008C8580935D0123C030
:1012D000888999890E9414088E85811105C0CE01E4
:1012E0000A960E94C60C06C08230C9F4CE010A9646
:1012F0000E94400B882399F00EC06BE671E005C098
:1013000069EC71E002C067EA71E0FB01449150E0D2
:1013100080E80E941F088EEF8093E80003C081E2FE
:101320008093EB0061960FB6F894DEBF0FBECDBF81
:10133000DF91CF91FF91EF91BF91AF919F918F91ED
:101340007F916F915F914F913F912F911F91FF90EE
:10135000EF90DF90CF900F900FBE0F901F901895D9
:101360008093E9008091F200882319F08AE380934A
:10137000E800089510925D0181E08093D70080EA33
:101380008093D80082E189BD09B400FEFDCF61E001
:1013900070E080E090E00E94DA0380E98093D8005A
:1013A0008CE08093E2001092E000559A209A5D98BC
:1013B000289808951F920F920FB60F9211242F9321
:1013C0003F934F935F936F937F938F939F93AF93CD
:1013D000BF93EF93FF938091E1001092E10083FFB0
:1013E0000FC01092E90091E09093EB001092EC0096
:1013F00092E39093ED0010925D0198E09093F000DD
:1014000082FF26C083E00E94B00982E00E940207AA
:10141000882321F08DE691E00E946D0C80915F01A0
:10142000882339F080915F01815080935F01882388
:1014300069F080915E01882359F080915E018150AE
:1014400080935E01811104C0289802C05D98F1CF9D
:10145000FF91EF91BF91AF919F918F917F916F918C
:101460005F914F913F912F910F900FBE0F901F9062
:1014700018950F931F93CF93DF93EC010E94A9035C
:10148000688779878A879B87E881F9810084F1855D
:10149000E02DCE01099597FF17C00E94A90308858A
:1014A00019852A853B85DC01CB01801B910BA20BA2
:1014B000B30B0C811D812E813F8180179107A207FC
:1014C000B30710F38FEF9FEFDF91CF911F910F9133
:1014D0000895CF93DF93EC01CE010E94390A97FD66
:1014E00011C08D32910571F09C01205331092A30D1
:1014F000310540F0E881F9810680F781E02DCE01C9
:101500000995EACFDF91CF910895BF92CF92DF92F4
:10151000EF92FF920F931F93CF93DF938C01C62F0F
:101520000E94690AFC0197FD47C0C12CD12C7601AD
:10153000B12C0C2E000CDD0BEC17FD0709F1ED3280
:10154000F105E1F0CF01C0970A97D0F4AAE0B0E02E
:10155000A70196010E94590D6F01FF0FEE08FF08C9
:10156000DC01CB018C0D9D1DAE1DBF1D6C017D01ED
:1015700020E3C21AD108E108F10802C0BB24B394E9
:10158000D801ED91FC910680F781E02DC801099505
:10159000C8010E94390AFC01C0970A9768F2CE1769
:1015A000DF0751F2BB2061F066277727CB016C196A
:1015B0007D098E099F0906C060E070E0CB0102C082
:1015C000C701B601DF91CF911F910F91FF90EF906E
:1015D000DF90CF90BF90089561E00C94850AEF9260
:1015E000FF921F93CF93DF93EC01162FE881F981CF
:1015F0000480F581E02D09957C01E881F981068060
:10160000F781E02D612FCE010995C7019927DF9160
:10161000CF911F91FF90EF900895FC0190819F5F03
:10162000908349E150E06DE472E080E80C941F087B
:1016300045E650E066E672E080E80C941F08EF9201
:10164000FF920F931F93CF93DF931F92CDB7DEB717
:1016500089838B017A0141E050E0BE016F5F7F4FCB
:1016600084E00E948807A701B80184E40E948807EB
:101670000F90DF91CF911F910F91FF90EF90089500
:10168000FC0191818081813A31F481E0913091F0C7
:10169000933089F411C0813271F49B3021F482813E
:1016A0008093020105C09A3031F482818093010158
:1016B00081E00895089580E0089548E050E082E0D8
:1016C0000C941F0BDC01683810F068582DC0E62F11
:1016D000F0E067FF11C0E058F10981E090E001C03F
:1016E000880FEA95EAF714969C911497892B149623
:1016F0008C93149760E018C0E353FE4F649161111E
:1017000009C081E090E013969C938E93129780E03D
:1017100090E0089567FF08C014968C91149782603A
:1017200014968C9314976F7716968C91169768176A
:1017300051F117968C911797681729F118968C918B
:101740001897681701F119968C9119976817D9F0B5
:101750001A968C911A976817B1F01B968C911B976B
:10176000681789F0FD01369680E090E02191211103
:1017700005C0FD01E80FF91F668305C0019686309C
:101780009105A1F7BECFCD01BD016C5F7F4F0E94D7
:101790005D0B81E090E00895DC01683810F0685836
:1017A00025C0E62FF0E067FF12C0E058F10981E0A4
:1017B00090E001C0880FEA95EAF7809514969C9115
:1017C0001497892314968C93149760E00FC0E35309
:1017D000FE4F64916623F9F067FF08C014968C9160
:1017E00014978D7F14968C9314976F77FD0186E084
:1017F000662321F09681691301C0168281503196CB
:101800008111F6CFCD01BD016C5F7F4F0E945D0B52
:1018100081E090E0089580E090E00895FC01168258
:10182000178210861186128613861482BC016C5FA3
:101830007F4F0C945D0B10926C01E0E6F1E0138297
:10184000128286E291E09183808308958091BB01AA
:101850009091BC012091BD013091BE01821B930B80
:101860008F73992708952091BB013091BC0180911D
:10187000BD019091BE012817390749F0E091BD01E3
:10188000F091BE01E558FE4F808190E008958FEF02
:101890009FEF08952091BB013091BC018091BD0163
:1018A0009091BE0128173907A9F0E091BD01F09190
:1018B000BE01E558FE4F80812091BD013091BE01EF
:1018C0002F5F3F4F2F7333273093BE012093BD010D
:1018D00090E008958FEF9FEF0895CF93DF93C0912D
:1018E000BB01D091BC012196CF73DD278091BD0152
:1018F0009091BE01C817D90799F082E00E9457075E
:101900008F3F2FEF920761F0E091BB01F091BC0196
:10191000E558FE4F8083D093BC01C093BB01DFCF5D
:10192000DF91CF91089583E00C94B0090F931F933A
:10193000CF93DF931F92CDB7DEB78C01698380917F
:101940000A01882359F041E050E0BE016F5F7F4FEC
:1019500083E00E948807181619063CF081E090E0A9
:10196000F8019383828380E090E00F90DF91CF9124
:101970001F910F910895FC0190819E5F908342E436
:1019800050E06BEC72E080E80C941F08FC01818150
:101990009081913A59F4813209F04DC047E050E00E
:1019A00063E071E080E00E941F0847C0913209F0B7
:1019B00042C0803239F467E070E083E091E00E9439
:1019C00066083BC0823209F036C0828180930A01EA
:1019D0008091030190910401A0910501B09106014D
:1019E000803B9440A105B10541F580910A0180FD3D
:1019F00011C087E797E790930108809300089BE068
:101A000088E10FB6F894A895809360000FBE90937C
:101A1000600013C00FB6F894A895809160008861AB
:101A200080936000109260000FBEA895109201088C
:101A30001092000802C080E0089581E008950895A2
:101A4000EDE6F1E01382128288EE93E0A0E0B0E0D0
:101A500084839583A683B78384E391E09183808315
:101A60000895A1E21A2EAA1BBB1BFD010DC0AA1FDF
:101A7000BB1FEE1FFF1FA217B307E407F50720F0F7
:101A8000A21BB30BE40BF50B661F771F881F991F72
:101A90001A9469F760957095809590959B01AC01BB
:101AA000BD01CF010895EE0FFF1F0590F491E02DC9
:101AB00009940E94640DA59F900DB49F900DA49F62
:101AC000800D911D11240895A29FB001B39FC00104
:101AD000A39F700D811D1124911DB29F700D811D5A
:0A1AE0001124911D0895F894FFCF22
:101AEA0001010100E1000000000000426174746518
:101AFA0072793A20004D5553545F494E5641444538
:101B0A005F0000000000EF0ACA05620BCC0B0E0C46
:101B1A0000000000960CCA05260C4A0C330C930CE4
:021B2A006D0C40
:00000001FF
