:100000000C9489010C94B1010C94B1010C94B101D0
:100010000C94B1010C94B1010C94B1010C94B10198
:100020000C94B1010C94B1010C9488090C9439081A
:100030000C94B1010C94B1010C94B1010C94B10178
:100040000C94B1010C94B1010C94B1010C94B10168
:100050000C94B1010C94B1010C94B1010C940D03FA
:100060000C94B1010C94B1010C94B1010C94B10148
:100070000C94B1010C94B1010C94B1010C94B10138
:100080000C94B1010C94B1010C94B1010C94B10128
:100090000C94B1010C94B1010C94B1010C94B10118
:1000A0000C94B1010C94B1010C94B1015C04610495
:1000B00066047004BA04BA04BA047A0484048E0490
:1000C0009804A504BA04AD04D704DA04CD04D1041D
:1000D000FB04FB04FB04DE04E204E604EC04F0048D
:1000E000FB04F604070605040100080A0B0C0D09C1
:1000F0000000000200080E0000030401000B0000D5
:1001000000000000000000000000000000000408E3
:10011000020110408040102040804080080204010D
:10012000804020100201108010204040040404048C
:10013000040304050202020204030202020206068C
:100140000606060604040202020400000000250060
:1001500028002B002E0031000000000024002700A2
:100160002A002D00300000C18081C112010002026E
:10017000000040412337800001010200011201000C
:1001800002000000404123378000010102000118F5
:1001900003410072006400750069006E006F00206A
:1001A000004C004C004300220341007200640075C3
:1001B0000069006E006F0020004D0069006300724E
:1001C000006F00200020002000040309040000004C
:1001D00000000000002A2B280000000000000000A2
:1001E000000000000000000000000000002C9EB491
:1001F000A0A1A2A434A6A7A5AE362D3738271E1F6E
:1002000020212223242526B333B62EB7B89F848518
:10021000868788898A8B8C8D8E8F90919293949506
:10022000969798999A9B9C9D2F3130A3AD350405E4
:10023000060708090A0B0C0D0E0F101112131415E6
:10024000161718191A1B1C1DAFB1B0B5000904020E
:1002500000010300000009210101000122650007DF
:1002600005840340000105010902A1010901A10063
:10027000850105091901290315002501950375015B
:10028000810295017505810305010930093109389D
:100290001581257F750895038106C0C005010906F3
:1002A000A1018502050719E029E71500250175015F
:1002B000950881029501750881039506750815005A
:1002C00025650507190029658100C0080B00020299
:1002D00002010009040000010202000005240010D0
:1002E000010524010101042402060524060001077A
:1002F00005810310004009040100020A0000000704
:100300000502024000000705830240000000C90BFF
:10031000CE0C11241FBECFEFDAE0DEBFCDBF11E05F
:10032000A0E0B1E0E6E4FAE102C005900D92AA3344
:10033000B107D9F721E0AAE3B1E001C01D92A73BC4
:10034000B207E1F711E0C9E8D1E004C02197FE014E
:100350000E94010DC738D107C9F70E9467050C94A8
:10036000210D0C94000080913A0190913B0197FD82
:10037000AAC090933F0180933E01109241011092D8
:10038000400180913C0190913D0197FDA8C0909360
:100390004301809342011092450110924401609103
:1003A0003E0170913F018DE00E94350461E070E0F4
:1003B00080E090E00E9488036091400170914101CB
:1003C0008BE00E94350461E070E080E090E00E94E4
:1003D000880360914201709143018AE00E943504D4
:1003E00061E070E080E090E00E9488036091440149
:1003F0007091450189E00E94350461E070E080E081
:1004000090E00E94880360913E0170913F014AE0B4
:1004100050E085E691E00E9482066BE071E085E69F
:1004200091E00E94B50560914001709141014AE060
:1004300050E085E691E00E9482066BE071E085E67F
:1004400091E00E94B50560914201709143014AE03C
:1004500050E085E691E00E9482066BE071E085E65F
:1004600091E00E94B50560914401709145014AE018
:1004700050E085E691E00E9482066BE071E085E63F
:1004800091E00E94D20560913A0170913B014AE0EF
:1004900050E085E691E00E9482066BE071E085E61F
:1004A00091E00E94B50560913C0170913D014AE0E8
:1004B00050E085E691E00E9482066BE071E085E6FF
:1004C00091E00C94D20510923F0110923E0191955B
:1004D00081959109909341018093400152CF1092F0
:1004E00043011092420191958195910990934501A4
:1004F0008093440154CF82E10E94040483E10E946E
:10050000040484E10E94040461E086E00C94380550
:1005100060E875E285E691E00E94CD0C61E08DE037
:100520000E94FC0461E08BE00E94FC0461E08AE030
:100530000E94FC0461E089E00E94FC0461E088E024
:100540000E94FC0461E087E00E94FC0464E670E025
:1005500080E090E00E94880361E088E00E94380516
:1005600061E087E00E94380561E086E00E94FC04BB
:100570000C947B021F93CF93DF9385E691E00E945A
:10058000D40B892B09F445C085E691E00E94F80B55
:10059000182F823521F08C3411F0833461F485E614
:1005A00091E00E949A0A9B0121503F4F2F3F31401A
:1005B00038F4EB0107C0873429F40E94B30124C04A
:1005C000C0E0D0E01C34E1F01235A9F01334E1F4BE
:1005D0006DE071E085E691E00E94B505CC9FB00129
:1005E000CD9F700D700D11244AE050E085E691E03A
:1005F0000E94890609C0D0933B01C0933A0104C010
:10060000D0933D01C0933C01DF91CF911F910C9499
:10061000B301DF91CF911F9108951F920F920FB6F2
:100620000F9211242F933F938F939F93AF93BF9378
:100630008091470190914801A0914901B0914A01F0
:100640003091460123E0230F2D3720F40196A11DA0
:10065000B11D05C026E8230F0296A11DB11D2093F0
:1006600046018093470190934801A0934901B093BC
:100670004A0180914B0190914C01A0914D01B091A4
:100680004E010196A11DB11D80934B0190934C0129
:10069000A0934D01B0934E01BF91AF919F918F9167
:1006A0003F912F910F900FBE0F901F9018952FB76D
:1006B000F8946091470170914801809149019091AF
:1006C0004A012FBF08953FB7F89480914B01909154
:1006D0004C01A0914D01B0914E0126B5A89B05C0DB
:1006E0002F3F19F00196A11DB11D3FBFBA2FA92FB1
:1006F000982F8827820F911DA11DB11DBC01CD012E
:1007000042E0660F771F881F991F4A95D1F7089519
:10071000CF92DF92EF92FF92CF93DF936B017C0138
:100720000E946303EB01C114D104E104F10479F0E8
:100730000E9463036C1B7D0B683E7340A0F381E055
:10074000C81AD108E108F108C851DC4FECCFDF919D
:10075000CF91FF90EF90DF90CF900895789484B57B
:10076000826084BD84B5816084BD85B5826085BDAD
:1007700085B5816085BDEEE6F0E080818160808393
:10078000E1E8F0E010828081826080838081816076
:100790008083E0E8F0E0808181608083E1E9F0E03F
:1007A000808182608083808181608083E0E9F0E0E5
:1007B000808181608083E1ECF0E0808184608083CF
:1007C000808182608083808181608083E3ECF0E0BF
:1007D000808181608083E0ECF0E0808182608083B2
:1007E000E2ECF0E0808181608083EAE7F0E08081E4
:1007F0008460808380818260808380818160808347
:100800008081806880830895823108F08251E82FCA
:10081000F0E0EC51FF4FE49180917B00E3FB222755
:1008200020F930E095E0220F331F9A95E1F78F7D94
:10083000282B20937B008091000120E4829FC0013F
:100840001124E770E82BE0937C0080917A008064AB
:1008500080937A0080917A0086FDFCCF80917800A9
:100860002091790090E0922B08951F93CF93DF930E
:10087000182FEB0161E00E94FC04209711F460E066
:1008800004C0CF3FD10539F461E0812FDF91CF91D2
:100890001F910C943805E12FF0E0E051FF4FE491F7
:1008A0008E2F90E0FC013197EE30F10508F062C028
:1008B000EA5AFF4F0C94010D84B5806884BDC7BD12
:1008C0005EC084B5806284BDC8BD59C0809180007F
:1008D000806880938000D0938900C09388004FC0C7
:1008E00080918000806280938000D0938B00C093C1
:1008F0008A0045C080919000806880939000D093DA
:100900009900C09398003BC08091900080628093D2
:100910009000D0939B00C0939A0031C080919000CA
:10092000886080939000D0939D00C0939C0027C066
:100930008091C00080688093C0008091C0008F7B50
:100940008093C000C093CF001AC08091C000806225
:100950008093C000C093D00012C08091C200886014
:100960008093C2008091C2008B7F8093C200C093AD
:10097000D20005C0C038D1050CF086CF80CFDF9102
:10098000CF911F91089590E0FC013197EE30F10571
:1009900090F5EC59FF4F0C94010D809180008F77FA
:1009A00003C0809180008F7D80938000089584B57E
:1009B0008F7702C084B58F7D84BD089580919000AB
:1009C0008F7707C0809190008F7D03C08091900049
:1009D000877F8093900008958091C0008F7703C037
:1009E0008091C0008F7D8093C00008958091C200E7
:1009F000877F8093C2000895CF93DF9390E0FC013E
:100A0000E25FFE4F2491FC01E45DFE4F8491882358
:100A100061F190E0880F991FFC01E85AFE4FC591E3
:100A2000D491FC01E65BFE4FA591B491611109C020
:100A30009FB7F8948881209582238883EC912E2398
:100A40000BC0623061F49FB7F8948881322F3095E3
:100A500083238883EC912E2B2C939FBF06C08FB7E6
:100A6000F894E8812E2B28838FBFDF91CF910895D2
:100A70001F93CF93DF93282F30E0F901E051FF4F10
:100A80008491F901E25FFE4FD491F901E45DFE4FDC
:100A9000C491CC23C1F0162F81110E94C304EC2F06
:100AA000F0E0EE0FFF1FE65BFE4FA591B4919FB7FC
:100AB000F894111104C08C91D095D82302C0EC9108
:100AC000DE2BDC939FBFDF91CF911F9108950E9491
:100AD000AE038FE491E00E9468090E948802C0E0A2
:100AE000D0E00E94BA022097E1F30E940000F9CF03
:100AF000CF92DF92EF92FF920F931F93CF93DF93EA
:100B00006C01EB017B01E40EF51E00E010E0CE1558
:100B1000DF0561F06991D601ED91FC910190F081C2
:100B2000E02DC6010995080F191FF1CFC801DF910B
:100B3000CF911F910F91FF90EF90DF90CF9008958C
:100B40006115710579F0FB0101900020E9F73197FB
:100B5000AF01461B570BDC01ED91FC910280F38144
:100B6000E02D099480E090E008950C94A005DC014C
:100B7000ED91FC910190F081E02D09940F931F936A
:100B8000CF93DF93EC016DE00E94B7058C016AE022
:100B9000CE010E94B705800F911FDF91CF911F9169
:100BA0000F9108950F931F93CF93DF93EC010E9451
:100BB000A0058C01CE010E94BE05800F911FDF9120
:100BC000CF911F910F9108958F929F92AF92BF92F4
:100BD000CF92DF92EF92FF920F931F93CF93DF9309
:100BE000CDB7DEB7A1970FB6F894DEBF0FBECDBF6D
:100BF0006C01142FE52FCB01022F19A2223008F42B
:100C00000AE07E0121E2E20EF11C802E912CA12C43
:100C1000B12C612F7E2FA50194010E94DF0C029F51
:100C20001019112481E0E81AF1081A3014F4105D4B
:100C300001C0195CF7011083122FE32FCA01232B87
:100C4000242B252B31F7B701C6010E94A005A196E0
:100C50000FB6F894DEBF0FBECDBFDF91CF911F91CD
:100C60000F91FF90EF90DF90CF90BF90AF909F904B
:100C70008F900895CF92DF92EF92FF920F931F9380
:100C8000CF93DF932115310581F4DC01ED91FC91C7
:100C90000190F081E02D642FDF91CF911F910F9192
:100CA000FF90EF90DF90CF9009942A30310501F545
:100CB00077FF1DC06A017B01EC016DE20E94B70560
:100CC0008C0144275527BA014C195D096E097F092B
:100CD0002AE0CE010E94E405800F911FDF91CF91A1
:100CE0001F910F91FF90EF90DF90CF9008952AE031
:100CF000DF91CF911F910F91FF90EF90DF90CF90F8
:100D00000C94E4059A01AB01770F660B770B0C94FA
:100D10003A060F931F93CF93DF93EC010E94820654
:100D20008C01CE010E94BE05800F911FDF91CF91F3
:100D30001F910F910895615030F02091F100FC0156
:100D400020830196F8CF289A84E68093560108956F
:100D50002FB7FC012083F89467706093E900089531
:100D6000CF93DF931F92CDB7DEB7682FCE010196E8
:100D70000E94A8068091F20099819FBF0F90DF9199
:100D8000CF910895EF92FF920F931F93CF93DF932C
:100D90001F92CDB7DEB790915501992311F057FFFF
:100DA00003C08FEF9FEF29C08A017B01682FCE011E
:100DB00001960E94A8062091F20030E00217130766
:100DC0000CF49801822FF70194E6815038F0289AAC
:100DD000909356014091F1004193F7CF21153105D1
:100DE00021F08091F200882321F089818FBFC90111
:100DF00004C08BE68093E800F8CF0F90DF91CF918D
:100E00001F910F91FF90EF900895CF93DF931F9262
:100E1000CDB7DEB741E050E0BE016F5F7F4F0E946B
:100E2000C206019719F4898190E002C08FEF9FEF0D
:100E30000F90DF91CF910895CF93DF931F92CDB79D
:100E4000DEB7682FCE0101960E94A8069091E800B7
:100E5000892F807295FF04C09091F20080E4891B75
:100E600099819FBF0F90DF91CF9108954F925F922C
:100E70006F927F928F929F92AF92BF92CF92DF92AA
:100E8000EF92FF920F931F93CF93DF931F92CDB7F3
:100E9000DEB7A82E6B01B42E052F80915501882353
:100EA00069F0E42EF52E8AEF782E8A2D8072582E66
:100EB0009AE3692E8A2D8074482E12C08FEF9FEF1F
:100EC0004FC08A2D0E941C07182F81110DC07A94E3
:100ED0007720A1F361E070E080E090E00E94880359
:100EE000E114F10471F732C090E0E816F9060CF451
:100EF0001E2D812E912CE818F9086A2DCE0101963D
:100F00000E94A806552029F01150A0F01092F1007F
:100F1000FBCFF601A7FE0AC0115050F084918093D8
:100F2000F1003196F9CF81918093F1001150D8F7FB
:100F3000C80CD91C8091E80085FF0FC0E114F104B2
:100F400011F441100AC089818FBFCACF5D9A84E62F
:100F5000809357018B2D902F03C06092E800F3CF50
:100F60000F90DF91CF911F910F91FF90EF90DF9045
:100F7000CF90BF90AF909F908F907F906F905F9039
:100F80004F9008951092E90010925401109253016D
:100F9000909352018093510108950F931F93CF9323
:100FA000DF93DB01A40FB51FFB016EEFEA17FB0710
:100FB00091F187FF02C0249101C02081009153016B
:100FC00010915401C0915101D09152010C171D078D
:100FD000B4F49091E8009570E1F39091E80092FDEF
:100FE0001CC02093F10020915301309154012F5FD8
:100FF0003F4F2F733327232B11F46093E800209188
:101000005301309154012F5F3F4F3093540120938F
:1010100053013196CBCFCA0102C08FEF9FEFDF9112
:10102000CF911F910F910895CF93DF93EB01209102
:10103000E80022FFFCCF6C2F0E949B068BEF809371
:10104000E800CE01DF91CF910895CF93DF931F92F7
:10105000CDB7DEB71982CE0101960E94690CCE0190
:1010600001960E94BB0A898190E00F90DF91CF9199
:1010700008951F920F920FB60F921124CF92DF9214
:10108000EF92FF921F932F933F934F935F936F9332
:101090007F938F939F93AF93BF93EF93FF93CF93E0
:1010A000DF93CDB7DEB76197DEBFCDBF1092E90009
:1010B0008091E80083FFE4C068E0CE010A960E94B8
:1010C0009B0682EF8093E8009A8597FF05C0809188
:1010D000E80080FFFCCF03C08EEF8093E800892FEB
:1010E000807609F0A3C08B85811105C01092F100B4
:1010F0001092F100BEC0282F2D7F213009F4B9C015
:10110000853049F48091E80080FFFCCF8C858068B1
:101110008093E300AEC0863009F05EC01D85E8888C
:10112000F988123069F580E090E00E94C2070E94C1
:10113000250899E09E012F5F3F4F6901F901292F92
:1011400011922A95E9F799831A8391E09E8390E89A
:1011500098879AEF99872091530130915401275F26
:101160003F4F3C832B838D83C7010E94C20749E018
:1011700050E0B60180E00E94CD070E94250879C0AA
:10118000C7010E94C207123241F482E290E00E943D
:10119000C60A892B09F06DC070C0113069F48889C6
:1011A0009989089711F41093500180915001811191
:1011B00052C06DE771E057C0133009F05EC08C85F6
:1011C000882309F44BC0823009F44BC0813009F008
:1011D00054C06FE871E047C0873009F44EC08830D2
:1011E00021F481E08093F10044C0893009F041C0CE
:1011F000937009F042C0E7E6F1E081E031E096E368
:101200008093E9003093EB0024912093EC009093BD
:10121000ED008F5F3196853099F78EE78093EA0075
:101220001092EA008C858093550123C088899989A2
:101230000E94C2078E85811105C0CE010A960E94C8
:10124000740C06C08230C9F4CE010A960E94EE0AE0
:10125000882399F00EC06BE671E005C069EC71E07F
:1012600002C067EA71E0FB01449150E080E80E940F
:10127000CD078EEF8093E80003C081E28093EB00FE
:1012800061960FB6F894DEBF0FBECDBFDF91CF9150
:10129000FF91EF91BF91AF919F918F917F916F914E
:1012A0005F914F913F912F911F91FF90EF90DF90B1
:1012B000CF900F900FBE0F901F9018958093E9006C
:1012C0008091F200882319F08AE38093E800089562
:1012D0001092550181E08093D70080EA8093D80076
:1012E00082E189BD09B400FEFDCF61E070E080E0DD
:1012F00090E00E94880380E98093D8008CE080937E
:10130000E2001092E000559A209A5D98289808957E
:101310001F920F920FB60F9211242F933F934F936A
:101320005F936F937F938F939F93AF93BF93EF934D
:10133000FF938091E1001092E10083FF0FC01092B3
:10134000E90091E09093EB001092EC0092E390930F
:10135000ED001092550198E09093F00082FF26C0B6
:1013600083E00E945E0982E00E94B006882321F09B
:1013700085E691E00E941B0C80915701882339F08B
:1013800080915701815080935701882369F08091A3
:101390005601882359F0809156018150809356015F
:1013A000811104C0289802C05D98F1CFFF91EF91A0
:1013B000BF91AF919F918F917F916F915F914F916D
:1013C0003F912F910F900FBE0F901F9018950F9384
:1013D0001F93CF93DF93EC010E94570368877987AF
:1013E0008A879B87E881F9810084F185E02DCE0111
:1013F000099597FF17C00E945703088519852A850C
:101400003B85DC01CB01801B910BA20BB30B0C8144
:101410001D812E813F8180179107A207B30710F32A
:101420008FEF9FEFDF91CF911F910F910895CF9391
:10143000DF93EC01CE010E94E70997FD11C08D32C8
:10144000910571F09C01205331092A30310540F09B
:10145000E881F9810680F781E02DCE010995EACF78
:10146000DF91CF910895BF92CF92DF92EF92FF92DA
:101470000F931F93CF93DF938C01C62F0E94170AFF
:10148000FC0197FD47C0C12CD12C7601B12C0C2E4C
:10149000000CDD0BEC17FD0709F1ED32F105E1F071
:1014A000CF01C0970A97D0F4AAE0B0E0A701960157
:1014B0000E94070D6F01FF0FEE08FF08DC01CB0152
:1014C0008C0D9D1DAE1DBF1D6C017D0120E3C21A58
:1014D000D108E108F10802C0BB24B394D801ED9112
:1014E000FC910680F781E02DC8010995C8010E9492
:1014F000E709FC01C0970A9768F2CE17DF0751F29F
:10150000BB2061F066277727CB016C197D098E0916
:101510009F0906C060E070E0CB0102C0C701B601C0
:10152000DF91CF911F910F91FF90EF90DF90CF90BF
:10153000BF90089561E00C94330AEF92FF921F93DD
:10154000CF93DF93EC01162FE881F9810480F581B8
:10155000E02D09957C01E881F9810680F781E02D75
:10156000612FCE010995C7019927DF91CF911F9176
:10157000FF90EF900895FC0190819F5F908349E177
:1015800050E06DE472E080E80C94CD0745E650E051
:1015900066E672E080E80C94CD07EF92FF920F931D
:1015A0001F93CF93DF931F92CDB7DEB789838B0153
:1015B0007A0141E050E0BE016F5F7F4F84E00E94FE
:1015C0003607A701B80184E40E9436070F90DF9127
:1015D000CF911F910F91FF90EF900895FC019181A1
:1015E0008081813A31F481E0913091F0933089F437
:1015F00011C0813271F49B3021F482818093020109
:1016000005C09A3031F482818093010181E0089510
:10161000089580E0089548E050E082E00C94CD0AFF
:10162000DC01683810F068582DC0E62FF0E067FF45
:1016300011C0E058F10981E090E001C0880FEA95FF
:10164000EAF714969C911497892B14968C9314970F
:1016500060E018C0E353FE4F6491611109C081E05E
:1016600090E013969C938E93129780E090E00895FB
:1016700067FF08C014968C911497826014968C931F
:1016800014976F7716968C911697681751F11796E5
:101690008C911797681729F118968C9118976817ED
:1016A00001F119968C9119976817D9F01A968C91B7
:1016B0001A976817B1F01B968C911B97681789F0E1
:1016C000FD01369680E090E02191211105C0FD01D9
:1016D000E80FF91F668305C0019686309105A1F7D2
:1016E000BECFCD01BD016C5F7F4F0E940B0B81E02F
:1016F00090E00895DC01683810F0685825C0E62FA6
:10170000F0E067FF12C0E058F10981E090E001C00D
:10171000880FEA95EAF7809514969C91149789238F
:1017200014968C93149760E00FC0E353FE4F6491BE
:101730006623F9F067FF08C014968C9114978D7F8B
:1017400014968C9314976F77FD0186E0662321F041
:101750009681691301C01682815031968111F6CFAE
:10176000CD01BD016C5F7F4F0E940B0B81E090E0CB
:10177000089580E090E00895FC011682178210869B
:101780001186128613861482BC016C5F7F4F0C9405
:101790000B0B10926401E8E5F1E0138212828EE1F6
:1017A00091E09183808308958091B3019091B40179
:1017B0002091B5013091B601821B930B8F7399274D
:1017C00008952091B3013091B4018091B5019091B9
:1017D000B6012817390749F0E091B501F091B6013B
:1017E000ED58FE4F808190E008958FEF9FEF0895B0
:1017F0002091B3013091B4018091B5019091B6016F
:1018000028173907A9F0E091B501F091B601ED581C
:10181000FE4F80812091B5013091B6012F5F3F4F7F
:101820002F7333273093B6012093B50190E00895CC
:101830008FEF9FEF0895CF93DF93C091B301D091C5
:10184000B4012196CF73DD278091B5019091B60147
:10185000C817D90799F082E00E9405078F3F2FEF44
:10186000920761F0E091B301F091B401ED58FE4FA1
:101870008083D093B401C093B301DFCFDF91CF91C8
:10188000089583E00C945E090F931F93CF93DF9329
:101890001F92CDB7DEB78C01698380910A0188233E
:1018A00059F041E050E0BE016F5F7F4F83E00E943E
:1018B0003607181619063CF081E090E0F801938392
:1018C000828380E090E00F90DF91CF911F910F9184
:1018D0000895FC0190819E5F908342E450E06BECA0
:1018E00072E080E80C94CD07FC0181819081913AEF
:1018F00059F4813209F04DC047E050E063E071E0F7
:1019000080E00E94CD0747C0913209F042C080328A
:1019100039F467E070E083E091E00E9414083BC076
:10192000823209F036C0828180930A0180910301DE
:1019300090910401A0910501B0910601803B944073
:10194000A105B10541F580910A0180FD11C087E72D
:1019500097E790930108809300089BE088E10FB619
:10196000F894A895809360000FBE9093600013C018
:101970000FB6F894A895809160008861809360000C
:10198000109260000FBEA8951092010810920008F6
:1019900002C080E0089581E008950895E5E6F1E051
:1019A0001382128288EE93E0A0E0B0E084839583F6
:1019B000A683B7838CE291E0918380830895A1E2AE
:1019C0001A2EAA1BBB1BFD010DC0AA1FBB1FEE1FB9
:1019D000FF1FA217B307E407F50720F0A21BB30B04
:1019E000E40BF50B661F771F881F991F1A9469F780
:1019F00060957095809590959B01AC01BD01CF01DC
:101A00000895EE0FFF1F0590F491E02D09940E94B8
:101A1000120DA59F900DB49F900DA49F800D911D58
:101A200011240895A29FB001B39FC001A39F700D20
:101A3000811D1124911DB29F700D811D1124911DD6
:061A40000895F894FFCFA9
:101A460001010100E100000000000020004D555397
:101A5600545F494E564144455F00000000009D0A10
:101A66007805100B7A0BBC0B00000000440C7805BF
:0A1A7600D40BF80BE10B410C1B0C24
:00000001FF
