:100000000C9489010C94B1010C94B1010C94B101D0
:100010000C94B1010C94B1010C94B1010C94B10198
:100020000C94B1010C94B1010C941E090C94CF07EF
:100030000C94B1010C94B1010C94B1010C94B10178
:100040000C94B1010C94B1010C94B1010C94B10168
:100050000C94B1010C94B1010C94B1010C94B50253
:100060000C94B1010C94B1010C94B1010C94B10148
:100070000C94B1010C94B1010C94B1010C94B10138
:100080000C94B1010C94B1010C94B1010C94B10128
:100090000C94B1010C94B1010C94B1010C94B10118
:1000A0000C94B1010C94B1010C94B1010404090445
:1000B0000E04180462046204620422042C04360450
:1000C00040044D04620455047F04820475047904DD
:1000D000A304A304A30486048A048E04940498044D
:1000E000A3049E04070605040100080A0B0C0D0971
:1000F0000000000200080E0000030401000B0000D5
:1001000000000000000000000000000000000408E3
:10011000020110408040102040804080080204010D
:10012000804020100201108010204040040404048C
:10013000040304050202020204030202020206068C
:100140000606060604040202020400000000250060
:1001500028002B002E0031000000000024002700A2
:100160002A002D00300000C18081C112010002026E
:10017000000040412337800001010200011201000C
:1001800002000000404123378000010102000118F5
:1001900003410072006400750069006E006F00206A
:1001A000004C004C004300220341007200640075C3
:1001B0000069006E006F0020004D0069006300724E
:1001C000006F00200020002000040309040000004C
:1001D00000000000002A2B280000000000000000A2
:1001E000000000000000000000000000002C9EB491
:1001F000A0A1A2A434A6A7A5AE362D3738271E1F6E
:1002000020212223242526B333B62EB7B89F848518
:10021000868788898A8B8C8D8E8F90919293949506
:10022000969798999A9B9C9D2F3130A3AD350405E4
:10023000060708090A0B0C0D0E0F101112131415E6
:10024000161718191A1B1C1DAFB1B0B5000904020E
:1002500000010300000009210101000122650007DF
:1002600005840340000105010902A1010901A10063
:10027000850105091901290315002501950375015B
:10028000810295017505810305010930093109389D
:100290001581257F750895038106C0C005010906F3
:1002A000A1018502050719E029E71500250175015F
:1002B000950881029501750881039506750815005A
:1002C00025650507190029658100C0080B00020299
:1002D00002010009040000010202000005240010D0
:1002E000010524010101042402060524060001077A
:1002F00005810310004009040100020A0000000704
:100300000502024000000705830240000000650B63
:100310006A0C11241FBECFEFDAE0DEBFCDBF11E0C3
:10032000A0E0B1E0EEE7F9E102C005900D92A8333C
:10033000B107D9F721E0A8E3B1E001C01D92A53BC8
:10034000B207E1F711E0C9E8D1E004C02197FE014E
:100350000E949D0CC738D107C9F70E940F050C9465
:10036000BD0C0C940000809138019091390197FDEB
:100370004AC090933D0180933C0110923F0110923E
:100380003E0180913A0190913B0197FD48C09093C6
:10039000410180934001109243011092420160910B
:1003A0003C0170913D018DE00E94DD0361E070E051
:1003B00080E090E00E94300360913E0170913F0127
:1003C0008BE00E94DD0361E070E080E090E00E943D
:1003D000300360914001709141018AE00E94DD0389
:1003E00061E070E080E090E00E94300360914201A3
:1003F0007091430189E00E94DD0361E070E080E0DC
:1004000090E00C94300310923D0110923C019195C4
:100410008195910990933F0180933E01B2CF109254
:10042000410110924001919581959109909343016A
:1004300080934201B4CF82E10E94AC0383E10E9429
:10044000AC0384E10E94AC0361E086E00C94E0041C
:1004500060E875E283E691E00E94690C42E350E0B7
:1004600060E070E083E691E00E94C90961E08DE000
:100470000E94A40461E08BE00E94A40461E08AE091
:100480000E94A40461E089E00E94A40461E088E085
:100490000E94A40461E087E00E94A40464E670E086
:1004A00080E090E00E94300361E088E00E94E00478
:1004B00061E087E00E94E00461E086E00E94A4041D
:1004C0000C941B021F93CF93DF9383E691E00E946D
:1004D000700B892B09F445C083E691E00E94940BD0
:1004E000182F823521F08C3411F0833461F483E6C7
:1004F00091E00E94360A9B0121503F4F2F3F31402F
:1005000038F4EB0107C0873429F40E94B30124C0FA
:10051000C0E0D0E01C34E1F01235A9F01334E1F46E
:100520006BE071E083E691E00E945D05CC9FB00135
:10053000CD9F700D700D11244AE050E083E691E0EC
:100540000E941F0609C0D0933901C093380104C02E
:10055000D0933B01C0933A01DF91CF911F910C944E
:10056000B301DF91CF911F9108951F920F920FB6A3
:100570000F9211242F933F938F939F93AF93BF9329
:100580008091450190914601A0914701B0914801A9
:100590003091440123E0230F2D3720F40196A11D53
:1005A000B11D05C026E8230F0296A11DB11D2093A1
:1005B00044018093450190934601A0934701B09375
:1005C00048018091490190914A01A0914B01B0915D
:1005D0004C010196A11DB11D8093490190934A01E0
:1005E000A0934B01B0934C01BF91AF919F918F911C
:1005F0003F912F910F900FBE0F901F9018952FB71E
:10060000F894609145017091460180914701909165
:1006100048012FBF08953FB7F89480914901909108
:100620004A01A0914B01B0914C0126B5A89B05C091
:100630002F3F19F00196A11DB11D3FBFBA2FA92F61
:10064000982F8827820F911DA11DB11DBC01CD01DE
:1006500042E0660F771F881F991F4A95D1F70895CA
:10066000CF92DF92EF92FF92CF93DF936B017C01E9
:100670000E940B03EB01C114D104E104F10479F0F1
:100680000E940B036C1B7D0B683E7340A0F381E05E
:10069000C81AD108E108F108C851DC4FECCFDF914E
:1006A000CF91FF90EF90DF90CF900895789484B52C
:1006B000826084BD84B5816084BD85B5826085BD5E
:1006C00085B5816085BDEEE6F0E080818160808344
:1006D000E1E8F0E010828081826080838081816027
:1006E0008083E0E8F0E0808181608083E1E9F0E0F0
:1006F000808182608083808181608083E0E9F0E096
:10070000808181608083E1ECF0E08081846080837F
:10071000808182608083808181608083E3ECF0E06F
:10072000808181608083E0ECF0E080818260808362
:10073000E2ECF0E0808181608083EAE7F0E0808194
:1007400084608083808182608083808181608083F7
:100750008081806880830895823108F08251E82F7B
:10076000F0E0EC51FF4FE49180917B00E3FB222706
:1007700020F930E095E0220F331F9A95E1F78F7D45
:10078000282B20937B008091000120E4829FC001F0
:100790001124E770E82BE0937C0080917A0080645C
:1007A00080937A0080917A0086FDFCCF809178005A
:1007B0002091790090E0922B08951F93CF93DF93BF
:1007C000182FEB0161E00E94A404209711F460E06F
:1007D00004C0CF3FD10539F461E0812FDF91CF9183
:1007E0001F910C94E004E12FF0E0E051FF4FE49101
:1007F0008E2F90E0FC013197EE30F10508F062C0D9
:10080000EA5AFF4F0C949D0C84B5806884BDC7BD27
:100810005EC084B5806284BDC8BD59C0809180002F
:10082000806880938000D0938900C09388004FC077
:1008300080918000806280938000D0938B00C09371
:100840008A0045C080919000806880939000D0938A
:100850009900C09398003BC0809190008062809383
:100860009000D0939B00C0939A0031C0809190007B
:10087000886080939000D0939D00C0939C0027C017
:100880008091C00080688093C0008091C0008F7B01
:100890008093C000C093CF001AC08091C0008062D6
:1008A0008093C000C093D00012C08091C2008860C5
:1008B0008093C2008091C2008B7F8093C200C0935E
:1008C000D20005C0C038D1050CF086CF80CFDF91B3
:1008D000CF911F91089590E0FC013197EE30F10522
:1008E00090F5EC59FF4F0C949D0C809180008F7710
:1008F00003C0809180008F7D80938000089584B52F
:100900008F7702C084B58F7D84BD0895809190005B
:100910008F7707C0809190008F7D03C080919000F9
:10092000877F8093900008958091C0008F7703C0E7
:100930008091C0008F7D8093C00008958091C20097
:10094000877F8093C2000895CF93DF9390E0FC01EE
:10095000E25FFE4F2491FC01E45DFE4F8491882309
:1009600061F190E0880F991FFC01E85AFE4FC59194
:10097000D491FC01E65BFE4FA591B491611109C0D1
:100980009FB7F8948881209582238883EC912E2349
:100990000BC0623061F49FB7F8948881322F309594
:1009A00083238883EC912E2B2C939FBF06C08FB797
:1009B000F894E8812E2B28838FBFDF91CF91089583
:1009C0001F93CF93DF93282F30E0F901E051FF4FC1
:1009D0008491F901E25FFE4FD491F901E45DFE4F8D
:1009E000C491CC23C1F0162F81110E946B04EC2F0F
:1009F000F0E0EE0FFF1FE65BFE4FA591B4919FB7AD
:100A0000F894111104C08C91D095D82302C0EC91B8
:100A1000DE2BDC939FBFDF91CF911F9108950E9441
:100A200056038DE491E00E94FE080E942802C0E077
:100A3000D0E00E9462022097E1F30E940000F9CF0B
:100A4000CF92DF92EF92FF920F931F93CF93DF939A
:100A50006C01EB017B01E40EF51E00E010E0CE1509
:100A6000DF0561F06991D601ED91FC910190F08173
:100A7000E02DC6010995080F191FF1CFC801DF91BC
:100A8000CF911F910F91FF90EF90DF90CF9008953D
:100A90006115710579F0FB0101900020E9F73197AC
:100AA000AF01461B570BDC01ED91FC910280F381F5
:100AB000E02D099480E090E008950C944805DC0155
:100AC000ED91FC910190F081E02D09940F931F931B
:100AD000CF93DF93EC016DE00E945F058C016AE02B
:100AE000CE010E945F05800F911FDF91CF911F9172
:100AF0000F9108958F929F92AF92BF92CF92DF9203
:100B0000EF92FF920F931F93CF93DF93CDB7DEB792
:100B1000A1970FB6F894DEBF0FBECDBF6C01142FA6
:100B2000E52FCB01022F19A2223008F40AE07E0142
:100B300021E2E20EF11C802E912CA12CB12C612F10
:100B40007E2FA50194010E947B0C029F1019112495
:100B500081E0E81AF1081A3014F4105D01C0195C44
:100B6000F7011083122FE32FCA01232B242B252BEF
:100B700031F7B701C6010E944805A1960FB6F89457
:100B8000DEBF0FBECDBFDF91CF911F910F91FF90C0
:100B9000EF90DF90CF90BF90AF909F908F9008958F
:100BA000CF92DF92EF92FF920F931F93CF93DF9339
:100BB0002115310581F4DC01ED91FC910190F0816A
:100BC000E02D642FDF91CF911F910F91FF90EF9057
:100BD000DF90CF9009942A30310501F577FF1DC0D1
:100BE0006A017B01EC016DE20E945F058C014427E4
:100BF0005527BA014C195D096E097F092AE0CE011B
:100C00000E947A05800F911FDF91CF911F910F9164
:100C1000FF90EF90DF90CF9008952AE0DF91CF9181
:100C20001F910F91FF90EF90DF90CF900C947A0579
:100C30009A01AB01770F660B770B0C94D0050F93DD
:100C40001F93CF93DF93EC010E9418068C01CE0115
:100C50000E946605800F911FDF91CF911F910F9128
:100C60000895615030F02091F100FC01208301963D
:100C7000F8CF289A84E68093540108952FB7FC0199
:100C80002083F89467706093E9000895CF93DF9311
:100C90001F92CDB7DEB7682FCE0101960E943E06A7
:100CA0008091F20099819FBF0F90DF91CF910895BD
:100CB000EF92FF920F931F93CF93DF931F92CDB7C5
:100CC000DEB790915301992311F057FF03C08FEFC6
:100CD0009FEF29C08A017B01682FCE0101960E94F7
:100CE0003E062091F20030E0021713070CF4980141
:100CF000822FF70194E6815038F0289A909354019E
:100D00004091F1004193F7CF2115310521F08091F9
:100D1000F200882321F089818FBFC90104C08BE6CE
:100D20008093E800F8CF0F90DF91CF911F910F9142
:100D3000FF90EF900895CF93DF931F92CDB7DEB76A
:100D400041E050E0BE016F5F7F4F0E94580601975F
:100D500019F4898190E002C08FEF9FEF0F90DF912F
:100D6000CF910895CF93DF931F92CDB7DEB7682F51
:100D7000CE0101960E943E069091E800892F807274
:100D800095FF04C09091F20080E4891B99819FBF78
:100D90000F90DF91CF9108954F925F926F927F9263
:100DA0008F929F92AF92BF92CF92DF92EF92FF927B
:100DB0000F931F93CF93DF931F92CDB7DEB7A82E6B
:100DC0006B01B42E052F80915301882369F0E42E26
:100DD000F52E8AEF782E8A2D8072582E9AE3692E8E
:100DE0008A2D8074482E12C08FEF9FEF4FC08A2D3E
:100DF0000E94B206182F81110DC07A947720A1F3BA
:100E000061E070E080E090E00E943003E114F104C2
:100E100071F732C090E0E816F9060CF41E2D812E11
:100E2000912CE818F9086A2DCE0101960E943E0621
:100E3000552029F01150A0F01092F100FBCFF601DF
:100E4000A7FE0AC0115050F084918093F1003196B2
:100E5000F9CF81918093F1001150D8F7C80CD91CBB
:100E60008091E80085FF0FC0E114F10411F44110F6
:100E70000AC089818FBFCACF5D9A84E680935501ED
:100E80008B2D902F03C06092E800F3CF0F90DF917D
:100E9000CF911F910F91FF90EF90DF90CF90BF9077
:100EA000AF909F908F907F906F905F904F9008953C
:100EB0001092E9001092520110925101909350014A
:100EC00080934F0108950F931F93CF93DF93DB011E
:100ED000A40FB51FFB016EEFEA17FB0791F187FF27
:100EE00002C0249101C02081009151011091520152
:100EF000C0914F01D09150010C171D07B4F490918F
:100F0000E8009570E1F39091E80092FD1CC02093F9
:100F1000F10020915101309152012F5F3F4F2F730B
:100F20003327232B11F46093E80020915101309175
:100F300052012F5F3F4F3093520120935101319660
:100F4000CBCFCA0102C08FEF9FEFDF91CF911F91EE
:100F50000F910895CF93DF93EB012091E80022FFDA
:100F6000FCCF6C2F0E9431068BEF8093E800CE01FE
:100F7000DF91CF910895CF93DF931F92CDB7DEB766
:100F80001982CE0101960E94050CCE0101960E94A5
:100F9000570A898190E00F90DF91CF9108951F92B9
:100FA0000F920FB60F921124CF92DF92EF92FF9221
:100FB0001F932F933F934F935F936F937F938F93E1
:100FC0009F93AF93BF93EF93FF93CF93DF93CDB7EF
:100FD000DEB76197DEBFCDBF1092E9008091E800D7
:100FE00083FFE4C068E0CE010A960E94310682EFDA
:100FF0008093E8009A8597FF05C08091E80080FF04
:10100000FCCF03C08EEF8093E800892F807609F033
:10101000A3C08B85811105C01092F1001092F100E0
:10102000BEC0282F2D7F213009F4B9C0853049F486
:101030008091E80080FFFCCF8C8580688093E3007E
:10104000AEC0863009F05EC01D85E888F988123090
:1010500069F580E090E00E9458070E94BB0799E084
:101060009E012F5F3F4F6901F901292F11922A95A7
:10107000E9F799831A8391E09E8390E898879AEF25
:1010800099872091510130915201275F3F4F3C8356
:101090002B838D83C7010E94580749E050E0B601B9
:1010A00080E00E9463070E94BB0779C0C7010E94CD
:1010B0005807123241F482E290E00E94620A892BC2
:1010C00009F06DC070C0113069F48889998908975A
:1010D00011F410934E0180914E01811152C06DE7C1
:1010E00071E057C0133009F05EC08C85882309F485
:1010F0004BC0823009F44BC0813009F054C06FE816
:1011000071E047C0873009F44EC0883021F481E097
:101110008093F10044C0893009F041C0937009F018
:1011200042C0E7E6F1E081E031E096E38093E90038
:101130003093EB0024912093EC009093ED008F5FAF
:101140003196853099F78EE78093EA001092EA0095
:101150008C858093530123C0888999890E94580700
:101160008E85811105C0CE010A960E94100C06C022
:101170008230C9F4CE010A960E948A0A882399F027
:101180000EC06BE671E005C069EC71E002C067EA71
:1011900071E0FB01449150E080E80E9463078EEF0C
:1011A0008093E80003C081E28093EB0061960FB664
:1011B000F894DEBF0FBECDBFDF91CF91FF91EF91CD
:1011C000BF91AF919F918F917F916F915F914F915F
:1011D0003F912F911F91FF90EF90DF90CF900F9054
:1011E0000FBE0F901F9018958093E9008091F20038
:1011F000882319F08AE38093E80008951092530140
:1012000081E08093D70080EA8093D80082E189BD95
:1012100009B400FEFDCF61E070E080E090E00E9444
:10122000300380E98093D8008CE08093E200109234
:10123000E000559A209A5D98289808951F920F9281
:101240000FB60F9211242F933F934F935F936F9399
:101250007F938F939F93AF93BF93EF93FF9380916F
:10126000E1001092E10083FF0FC01092E90091E0CD
:101270009093EB001092EC0092E39093ED001092AB
:10128000530198E09093F00082FF26C083E00E9413
:10129000F40882E00E944606882321F083E691E06C
:1012A0000E94B70B80915501882339F08091550138
:1012B000815080935501882369F0809154018823DF
:1012C00059F080915401815080935401811104C0E0
:1012D000289802C05D98F1CFFF91EF91BF91AF9137
:1012E0009F918F917F916F915F914F913F912F913E
:1012F0000F900FBE0F901F9018950F931F93CF93D1
:10130000DF93EC010E94FF02688779878A879B87B9
:10131000E881F9810084F185E02DCE01099597FFE0
:1013200017C00E94FF02088519852A853B85DC01CC
:10133000CB01801B910BA20BB30B0C811D812E8165
:101340003F8180179107A207B30710F38FEF9FEF3C
:10135000DF91CF911F910F910895CF93DF93EC010F
:10136000CE010E947D0997FD11C08D32910571F06B
:101370009C01205331092A30310540F0E881F98180
:101380000680F781E02DCE010995EACFDF91CF915C
:101390000895FC0144835583668377830895BF9243
:1013A000CF92DF92EF92FF920F931F93CF93DF9331
:1013B0008C01C62F0E94AD09FC0197FD47C0C12CCE
:1013C000D12C7601B12C0C2E000CDD0BEC17FD0797
:1013D00009F1ED32F105E1F0CF01C0970A97D0F4A1
:1013E000AAE0B0E0A70196010E94A30C6F01FF0FD5
:1013F000EE08FF08DC01CB018C0D9D1DAE1DBF1D4D
:101400006C017D0120E3C21AD108E108F10802C095
:10141000BB24B394D801ED91FC910680F781E02DB7
:10142000C8010995C8010E947D09FC01C0970A976F
:1014300068F2CE17DF0751F2BB2061F066277727ED
:10144000CB016C197D098E099F0906C060E070E030
:10145000CB0102C0C701B601DF91CF911F910F915F
:10146000FF90EF90DF90CF90BF90089561E00C94D3
:10147000CF09EF92FF921F93CF93DF93EC01162FCA
:10148000E881F9810480F581E02D09957C01E881EE
:10149000F9810680F781E02D612FCE010995C70102
:1014A0009927DF91CF911F91FF90EF900895FC0154
:1014B00090819F5F908349E150E06DE472E080E8A5
:1014C0000C94630745E650E066E672E080E80C9411
:1014D0006307EF92FF920F931F93CF93DF931F92B7
:1014E000CDB7DEB789838B017A0141E050E0BE01C0
:1014F0006F5F7F4F84E00E94CC06A701B80184E4AF
:101500000E94CC060F90DF91CF911F910F91FF9019
:10151000EF900895FC0191818081813A31F481E05E
:10152000913091F0933089F411C0813271F49B3085
:1015300021F482818093020105C09A3031F48281C6
:101540008093010181E00895089580E0089548E0C6
:1015500050E082E00C94690ADC01683810F06858A9
:101560002DC0E62FF0E067FF11C0E058F10981E0DF
:1015700090E001C0880FEA95EAF714969C911497C1
:10158000892B14968C93149760E018C0E353FE4F98
:101590006491611109C081E090E013969C938E9351
:1015A000129780E090E0089567FF08C014968C9130
:1015B0001497826014968C9314976F7716968C917B
:1015C0001697681751F117968C911797681729F19C
:1015D00018968C911897681701F119968C911997A4
:1015E0006817D9F01A968C911A976817B1F01B9664
:1015F0008C911B97681789F0FD01369680E090E08A
:101600002191211105C0FD01E80FF91F668305C076
:10161000019686309105A1F7BECFCD01BD016C5F6B
:101620007F4F0E94A70A81E090E00895DC016838AE
:1016300010F0685825C0E62FF0E067FF12C0E058B0
:10164000F10981E090E001C0880FEA95EAF7809502
:1016500014969C911497892314968C93149760E0A8
:101660000FC0E353FE4F64916623F9F067FF08C093
:1016700014968C9114978D7F14968C9314976F7792
:10168000FD0186E0662321F09681691301C0168270
:10169000815031968111F6CFCD01BD016C5F7F4F36
:1016A0000E94A70A81E090E0089580E090E008950C
:1016B000FC01168217821086118612861386148208
:1016C000BC016C5F7F4F0C94A70A10926201E6E5A3
:1016D000F1E0138212828CE191E09183808308957E
:1016E0008091B1019091B2012091B3013091B40188
:1016F000821B930B8F73992708952091B10130912C
:10170000B2018091B3019091B4012817390749F0D3
:10171000E091B301F091B401EF58FE4F808190E069
:1017200008958FEF9FEF08952091B1013091B2019C
:101730008091B3019091B40128173907A9F0E09185
:10174000B301F091B401EF58FE4F80812091B301B5
:101750003091B4012F5F3F4F2F7333273093B40183
:101760002093B30190E008958FEF9FEF0895CF93FA
:10177000DF93C091B101D091B2012196CF73DD27E3
:101780008091B3019091B401C817D90799F082E014
:101790000E949B068F3F2FEF920761F0E091B1010D
:1017A000F091B201EF58FE4F8083D093B201C09305
:1017B000B101DFCFDF91CF91089583E00C94F4085D
:1017C0000F931F93CF93DF931F92CDB7DEB78C019A
:1017D000698380910A01882359F041E050E0BE01FD
:1017E0006F5F7F4F83E00E94CC06181619063CF00D
:1017F00081E090E0F8019383828380E090E00F9095
:10180000DF91CF911F910F910895FC0190819E5F10
:10181000908342E450E06BEC72E080E80C94630744
:10182000FC0181819081913A59F4813209F04DC0D7
:1018300047E050E063E071E080E00E94630747C04A
:10184000913209F042C0803239F467E070E083E001
:1018500091E00E94AA073BC0823209F036C0828123
:1018600080930A018091030190910401A0910501E8
:10187000B0910601803B9440A105B10541F58091EE
:101880000A0180FD11C087E797E7909301088093D4
:1018900000089BE088E10FB6F894A895809360005B
:1018A0000FBE9093600013C00FB6F894A895809176
:1018B0006000886180936000109260000FBEA89560
:1018C000109201081092000802C080E0089581E0A3
:1018D00008950895E3E6F1E01382128288EE93E022
:1018E000A0E0B0E084839583A683B7838AE291E089
:1018F000918380830895A1E21A2EAA1BBB1BFD01D0
:101900000DC0AA1FBB1FEE1FFF1FA217B307E407DE
:10191000F50720F0A21BB30BE40BF50B661F771F36
:10192000881F991F1A9469F7609570958095909516
:101930009B01AC01BD01CF010895EE0FFF1F059083
:10194000F491E02D09940E94AE0CA59F900DB49FD8
:10195000900DA49F800D911D11240895A29FB001A8
:10196000B39FC001A39F700D811D1124911DB29FD3
:0E197000700D811D1124911D0895F894FFCF74
:10197E0001010100E10000000000004D5553545FCD
:10198E00494E564144455F0000000000390A2005CB
:10199E00AC0A160B580B00000000E00B2005700B74
:0819AE00940B7D0BDD0BB70B60
:00000001FF
